S01200004C6564626C696E6B32322E7372656389
S11300000C945A000C9477000C9477000C947700AD
S11300100C9477000C9477000C9477000C94770080
S11300200C9477000C9477000C9477000C94770070
S11300300C9477000C9477000C9477000C94770060
S11300400C9477000C9477000C94AC010C9455013B
S11300500C9477000C9477000C9477000C94770040
S11300600C9477000C9477000C9477000C94770030
S11300700C9477000C9477000C9477000C94770020
S11300800C9477000C9477000C9477000C94770010
S11300900C9477000C9477000C9477000C94770000
S11300A00C9477000C9477000C9477000C947700F0
S11300B00C94770011241FBECFEFD8E0DEBFCDBF74
S11300C011E0A0E0B1E0E0E6FEE002C005900D9290
S11300D0AA31B107D9F721E0AAE1B1E001C01D922C
S11300E0A232B207E1F70E94C8020C942E070C94C6
S11300F00000FC018081869586958695DB018C93B2
S113010080818770808308950F931F93CF93DF932B
S113011000D0CDB7DEB7162F8A83BE016F5F7F4F45
S1130120CE0102960E9479001130C1F4E981F0E019
S1130130EE0FFF1FEA5FFE4F0190F081E02DA081DA
S11301400A8121E030E040E050E060E070E080E0CF
S113015090E00E9400032A2B208319C0111117C0BC
S1130160E981F0E0EE0FFF1FEA5FFE4FA081B1814D
S1130170EC910A8121E030E040E050E060E070E082
S113018080E090E00E9400032095E223EC930F901E
S11301900F90DF91CF911F910F910895EF92FF92ED
S11301A00F931F93CF93DF937C01C0E001C0CF5F17
S11301B0F701EC0FF11D80818111F9CF0E945E02DD
S11301C08C1768F4D0E013C0F701E00FF11F8081B1
S11301D00E946E028111DF5F0F5F1F4F03C000E0BA
S11301E010E0D0E08C2F90E0081719076CF30E9400
S11301F0B1028D2FDF91CF911F910F91FF90EF905E
S11302000895CF92DF92EF92FF920F931F93CF93B3
S1130210DF93CDB7DEB70B851C85CDB6DEB60E9465
S11302205E022DB73EB7281B31090FB6F8943EBFC6
S11302300FBE2DBF8DB79EB701967C010E945E0252
S113024090E0F80101900020E9F73197E01BF10BF1
S113025032968E179F07C0F00E945E02682F70E0EE
S11302609E01235F3F4FA801C7010E943A04182F43
S1130270C7010E94CE008DE00E946E02180F8AE032
S11302800E946E02810F01C080E00FB6F894DEBEBA
S11302900FBECDBEDF91CF911F910F91FF90EF90D4
S11302A0DF90CF9008958FE708951F920F920FB6B5
S11302B00F9211242F933F934F935F938F939F93A8
S11302C0AF93BF93EF93FF9380911A0190911B0119
S11302D0FC01EC57FF4F2081222311F13497019048
S11302E0F081E02D3081AC0141585F4FE417F507F0
S11302F031F4FC01E058FF4F9183808306C0DC0198
S1130300A058BF4F3196ED93FC93FC01EC57FF4F7F
S11303102150208331962081222321F0108203C0B2
S113032020E001C021E0222319F03093C60005C06B
S1130330E1ECF0E080818F7D8083FF91EF91BF91AC
S1130340AF919F918F915F914F913F912F910F901A
S11303500FBE0F901F9018951F920F920FB60F9219
S113036011242F933F934F935F936F937F938F93B6
S11303709F93AF93BF93EF93FF932091C600809117
S11303801C0190911D01FC01EB57FF4F308131118D
S113039026C03397A081B1812C9340815181BC0147
S11303A061587F4F4617570719F49183808307C01C
S11303B0FC01EE57FF4F4F5F5F4F51834083FC01B9
S11303C0EC57FF4F20812F5F20832F3709F431E052
S11303D0332329F0FC01EB57FF4F21E02083FF91E9
S11303E0EF91BF91AF919F918F917F916F915F91A9
S11303F04F913F912F910F900FBE0F901F90189522
S1130400CF93DF93A0E0B0E0880F991FAA1FBB1F12
S1130410880F991FAA1FBB1F9C01AD01220F331F18
S1130420441F551F220F331F441F551F60E074E201
S113043084EF90E00E94DE02215031092093C40031
S1130440E2ECF0E080818F7B80838083E1ECF0E05C
S113045080818061808380818860808380818068DE
S1130460808386E890E00E941903EC0190931D01BB
S113047080931C0186E890E00E94190390931B016D
S113048080931A01FE01E058FF4FD183C083329656
S1130490D183C08332961082CB57DF4F1882FC0180
S11304A0E058FF4F91838083329691838083329604
S11304B0108231961082DF91CF910895CF93DF930C
S11304C0C0911A01D0911B01CE010E945301CC5757
S11304D0DF4F9881891BDF91CF9108957FB7F894FE
S11304E091E035C020911A0130911B01F901EB57BD
S11304F0FF4F6081611127C03397A081B1818C9334
S11305004081518133974E175F0721F4339631832D
S1130510208307C0F901EE57FF4F4F5F5F4F5183B0
S11305204083F901EC57FF4F90819F5F90839F3781
S113053009F461E0662349F0F901EB57FF4F91E0BC
S1130540908321E003C020E001C021E090E09111FC
S1130550C9CF7FBFE1ECF0E0808180628083822F8D
S1130560089580911A0190911B01FC01E058FF4FFE
S1130570208131813296808191818217930711F411
S113058081E001C080E0882361F38091C000089578
S1130590789461E080E00E94840060E085E00E943D
S11305A0840080E895E20E9400028EE091E09F932F
S11305B08F930E9401010F900F90F7CFA1E21A2EA2
S11305C0AA1BBB1BFD010DC0AA1FBB1FEE1FFF1FF3
S11305D0A217B307E407F50720F0A21BB30BE40B43
S11305E0F50B661F771F881F991F1A9469F760958A
S11305F07095809590959B01AC01BD01CF01089544
S11306000F93083090F0982F872F762F652F542F53
S1130610432F322F22270850F4CF220F331F441FB9
S1130620551F661F771F881F991F0A95B2F70F91F0
S113063008950F931F93CF93DF938230910510F4A5
S113064082E090E0E0912001F091210120E030E08F
S1130650A0E0B0E0309719F140815181028113810B
S113066048175907C8F08417950769F4109731F0B3
S113067012960C93129713961C9327C00093200193
S11306801093210122C02115310519F04217530797
S113069018F49A01BD01EF01DF01F801DBCF211548
S11306A03105F9F0281B390B2430310580F48A8197
S11306B09B816115710521F0FB019383828304C042
S11306C09093210180932001FE01329644C0FE01E3
S11306D0E20FF31F819391932250310939832883C8
S11306E03AC020911E0130911F01232B41F4209127
S11306F002013091030130931F0120931E012091C8
S11307000001309101012115310541F42DB73EB7A7
S11307104091040150910501241B350BE0911E0109
S1130720F0911F01E217F307A0F42E1B3F0B2817CB
S1130730390778F0AC014E5F5F4F2417350748F056
S11307404E0F5F1F50931F0140931E01819391939D
S113075002C0E0E0F0E0CF01DF91CF911F910F9153
S11307600895CF93DF93009709F481C0FC01329779
S113077013821282A0912001B0912101109781F47B
S113078020813181820F931F20911E0130911F011E
S11307902817390751F5F0931F01E0931E0167C034
S11307A0ED0120E030E0CE17DF0740F44A815B81A1
S11307B09E0141155105F1F0EA01F5CFD383C283BF
S11307C040815181840F951FC817D90759F4888136
S11307D09981840F951F0296918380838A819B81DE
S11307E0938382832115310529F4F0932101E09349
S11307F020013DC0E901FB83EA8349915991C40F6B
S1130800D51FEC17FD0761F480819181840F951F3A
S11308100296E90199838883828193819B838A83E9
S1130820E0E0F0E012968D919C911397009719F0F7
S1130830FD01DC01F7CF8D919C9111979D012E5FF5
S11308403F4F820F931F20911E0130911F012817E3
S1130850390769F4309729F410922101109220018C
S113086002C013821282B0931F01A0931E01DF9174
S1130870CF910895AEE0B0E0E0E4F4E00C94050715
S11308808C01FA0186E08C831A83098377FF02C006
S113089060E070E8CB0101979E838D83A901BF01BD
S11308A0CE0101960E9466044D815E8157FD0AC007
S11308B02F813885421753070CF49A01F801E20F8F
S11308C0F31F10822E96E4E00C942107ABE0B0E015
S11308D0ECE6F4E00C94F7066C017B018A01FC0160
S11308E017821682838181FFCCC1CE0101963C011F
S11308F0F6019381F70193FD859193FF81917F0127
S1130900882309F4BAC1853239F493FD859193FFA4
S113091081917F01853229F4B60190E00E945D0641
S1130920E7CF912C212C312CFFE1F315D8F08B3239
S113093079F038F4803279F08332A1F4232D2061E8
S11309401DC08D3261F0803369F4232D216016C0FF
S1130950832D8260382EE32DE4603E2E2AC0F32DD1
S1130960F8601DC037FC2DC020ED280F2A3040F060
S11309708E32B9F436FC81C1232D2064322E19C085
S113098036FE06C08AE0989E200D1124922E11C0D6
S1130990EAE02E9E200D1124222EF32DF0623F2E2C
S11309A008C08C3621F4832D8068382E02C0883626
S11309B041F4F70193FD859193FF81917F018111AA
S11309C0B3CF982F9F7D9554933028F40C5F1F4F1D
S11309D09FE399830DC0833631F0833771F08335FB
S11309E009F059C021C0F801808189830E5F1F4F2F
S11309F088248394912C530113C02801F2E04F0EF4
S1130A00511CF801A080B18036FE03C0692D70E04E
S1130A1002C06FEF7FEFC5010E9452064C018201B4
S1130A20F32DFF773F2E16C0280122E0420E511C01
S1130A30F801A080B18036FE03C0692D70E002C0C9
S1130A406FEF7FEFC5010E9447064C01F32DF0685C
S1130A503F2E820133FC1BC0822D90E0881699063C
S1130A60B0F4B60180E290E00E945D062A94F4CFCF
S1130A70F50137FC859137FE81915F01B60190E065
S1130A800E945D0621102A9421E0821A91088114A3
S1130A90910471F7E8C0843611F0893641F5F80104
S1130AA037FE07C060817181828193810C5F1F4F83
S1130AB008C060817181072E000C880B990B0E5FB2
S1130AC01F4FF32DFF763F2E97FF09C09095809519
S1130AD0709561957F4F8F4F9F4FF0683F2E2AE0AE
S1130AE030E0A3010E949906882E861845C08537F8
S1130AF031F4232D2F7EB22E2AE030E025C0932D31
S1130B00997FB92E8F36C1F018F4883579F0B5C0C5
S1130B10803719F0883721F0B0C0E92FE061BE2E8C
S1130B20B4FE0DC0FB2DF460BF2E09C034FE0AC014
S1130B30292F2660B22E06C028E030E005C020E14F
S1130B4030E002C020E132E0F801B7FE07C0608166
S1130B507181828193810C5F1F4F06C06081718116
S1130B6080E090E00E5F1F4FA3010E949906882E3B
S1130B708618FB2DFF773F2E36FE0DC0232D2E7FCA
S1130B80A22E891458F434FE0BC032FC09C0832D04
S1130B908E7EA82E05C0B82CA32C03C0B82C01C08F
S1130BA0B92CA4FE0FC0FE01E80DF11D8081803335
S1130BB021F49A2D997EA92E09C0A2FE06C0B394F1
S1130BC0B39404C08A2D867809F0B394A3FC11C0B1
S1130BD0A0FE06C0B21488F4280C922C9B180EC0F8
S1130BE0B21460F4B60180E290E00E945D06B39412
S1130BF0F7CFB21418F42B1802C0982C212CA4FEA1
S1130C0010C0B60180E390E00E945D06A2FE17C00A
S1130C10A1FC03C088E790E002C088E590E0B6013B
S1130C200CC08A2D867859F0A1FE02C08BE201C067
S1130C3080E2A7FC8DE2B60190E00E945D06891473
S1130C4038F4B60180E390E00E945D069A94F7CFF1
S1130C508A94F301E80DF11D8081B60190E00E94B1
S1130C605D068110F5CF222009F442CEB60180E260
S1130C7090E00E945D062A94F6CFF6018681978162
S1130C8002C08FEF9FEF2B96E2E10C941307FC0157
S1130C900590615070400110D8F7809590958E0FA3
S1130CA09F1F0895FC016150704001900110D8F716
S1130CB0809590958E0F9F1F08950F931F93CF9348
S1130CC0DF93FB01238121FD03C08FEF9FEF2CC035
S1130CD022FF16C04681578124813581421753076C
S1130CE044F4A081B1819D012F5F3F4F3183208364
S1130CF08C93268137812F5F3F4F3783268314C01F
S1130D008B01EC01FB010084F185E02D0995892B11
S1130D10E1F6D80116968D919C9117970196179636
S1130D209C938E931697CE01DF91CF911F910F91D3
S1130D300895FA01AA27283051F1203181F1E8946D
S1130D406F936E7F6E5F7F4F8F4F9F4FAF4FB1E0BA
S1130D503ED0B4E03CD0670F781F891F9A1FA11DB5
S1130D60680F791F8A1F911DA11D6A0F711D811DB6
S1130D70911DA11D20D009F468943F912AE0269F7B
S1130D8011243019305D3193DEF6CF010895462FDA
S1130D904770405D4193B3E00FD0C9F7F6CF462FBB
S1130DA04F70405D4A3318F0495D31FD4052419324
S1130DB002D0A9F7EACFB4E0A695979587957795E1
S1130DC06795BA95C9F700976105710508959B0168
S1130DD0AC010A2E06945795479537952795BA95F1
S1130DE0C9F7620F731F841F951FA01D08952F92CA
S1130DF03F924F925F926F927F928F929F92AF92A7
S1130E00BF92CF92DF92EF92FF920F931F93CF93F3
S1130E10DF93CDB7DEB7CA1BDB0B0FB6F894DEBF8A
S1130E200FBECDBF09942A88398848885F846E84B0
S1130E307D848C849B84AA84B984C884DF80EE80FA
S1130E40FD800C811B81AA81B981CE0FD11D0FB603
S1130E50F894DEBF0FBECDBFED010895F894FFCF27
S1130E60000022012000240027002A002D004865EC
S10D0E706C6C6F2042414331000016
S9030000FC
