:100000000C945A000C94C0020C94F1020C947700EA
:100010000C9477000C9477000C9477000C94770084
:100020000C9477000C9477000C9477000C94770074
:100030000C9477000C9477000C9477000C94770064
:100040000C9477000C9477000C94A4010C944D014F
:100050000C9477000C9477000C9477000C94770044
:100060000C9477000C9477000C9477000C94770034
:100070000C9477000C9477000C9477000C94770024
:100080000C9477000C9477000C9477000C94770014
:100090000C9477000C9477000C9477000C94770004
:1000A0000C9477000C9477000C9477000C947700F4
:1000B0000C94770011241FBECFEFD8E0DEBFCDBF78
:1000C00011E0A0E0B1E0E8E1F1E102C005900D929D
:1000D000A232B107D9F721E0A2E2B1E001C01D923E
:1000E000AB33B207E1F70E947D030C948A080C94AD
:1000F0000000EF92FF920F931F93CF93DF937C0149
:10010000C0E001C0CF5FF701EC0FF11D80818111CC
:10011000F9CF0E9456028C1768F4D0E013C0F701A3
:10012000E00FF11F80810E9466028111DF5F0F5F87
:100130001F4F03C000E010E0D0E08C2F90E00817C4
:1001400019076CF30E94A9028D2FDF91CF911F91A7
:100150000F91FF90EF900895AF92BF92CF92DF92F0
:10016000EF92FF920F931F93CF93DF93CDB7DEB73C
:100170008E01035F1F4FF801A190B1908F01CDB6A2
:10018000DEB60E9456022DB73EB7281B31090FB6C6
:10019000F8943EBF0FBE2DBF8DB79EB701967C0170
:1001A0000E945602682F70E09801A501C7010E94C5
:1001B0009605182F0E945602811738F0C7010E9439
:1001C00079000E94A902812F01C080E00FB6F89447
:1001D000DEBE0FBECDBEDF91CF911F910F91FF907C
:1001E000EF90DF90CF90BF90AF900895CF92DF92C5
:1001F000EF92FF920F931F93CF93DF93CDB7DEB7AC
:100200000B851C85CDB6DEB60E9456022DB73EB7D3
:10021000281B31090FB6F8943EBF0FBE2DBF8DB716
:100220009EB701967C010E94560290E0F801019071
:100230000020E9F73197E01BF10B32968E179F07EC
:10024000D8F00E945602682F70E09E01235F3F4F56
:10025000A801C7010E949605182FC7010E947900C6
:100260008DE00E946602180F8AE00E946602180F55
:100270000E94A902812F01C080E00FB6F894DEBE73
:100280000FBECDBEDF91CF911F910F91FF90EF90E8
:10029000DF90CF9008958FE708951F920F920FB6C9
:1002A0000F9211242F933F934F935F938F939F93BC
:1002B000AF93BF93EF93FF938091320190913301FD
:1002C000FC01EC57FF4F2081222311F1349701905C
:1002D000F081E02D3081AC0141585F4FE417F50704
:1002E00031F4FC01E058FF4F9183808306C0DC01AC
:1002F000A058BF4F3196ED93FC93FC01EC57FF4F94
:100300002150208331962081222321F0108203C0C6
:1003100020E001C021E0222319F03093C60005C07F
:10032000E1ECF0E080818F7D8083FF91EF91BF91C0
:10033000AF919F918F915F914F913F912F910F902E
:100340000FBE0F901F9018951F920F920FB60F922D
:1003500011242F933F934F935F936F937F938F93CA
:100360009F93AF93BF93EF93FF932091C60080912B
:10037000340190913501FC01EB57FF4F3081311171
:1003800026C03397A081B1812C9340815181BC015B
:1003900061587F4F4617570719F49183808307C030
:1003A000FC01EE57FF4F4F5F5F4F51834083FC01CD
:1003B000EC57FF4F20812F5F20832F3709F431E066
:1003C000332329F0FC01EB57FF4F21E02083FF91FD
:1003D000EF91BF91AF919F918F917F916F915F91BD
:1003E0004F913F912F910F900FBE0F901F90189536
:1003F000CF93DF93A0E0B0E0880F991FAA1FBB1F27
:10040000880F991FAA1FBB1F9C01AD01220F331F2C
:10041000441F551F220F331F441F551F60E074E215
:1004200084EF90E00E944704215031092093C400DA
:10043000E2ECF0E080818F7B80838083E1ECF0E070
:1004400080818061808380818860808380818068F2
:10045000808386E890E00E947504EC01909335015A
:100460008093340186E890E00E94750490933301F4
:1004700080933201FE01E058FF4FD183C083329652
:10048000D183C08332961082CB57DF4F1882FC0194
:10049000E058FF4F91838083329691838083329618
:1004A000108231961082DF91CF910895CF93DF9320
:1004B000C0913201D0913301CE010E944B01CC5743
:1004C000DF4F9881891BDF91CF9108957FB7F89412
:1004D00091E035C02091320130913301F901EB57A1
:1004E000FF4F6081611127C03397A081B1818C9348
:1004F0004081518133974E175F0721F43396318342
:10050000208307C0F901EE57FF4F4F5F5F4F5183C4
:100510004083F901EC57FF4F90819F5F90839F3795
:1005200009F461E0662349F0F901EB57FF4F91E0D0
:10053000908321E003C020E001C021E090E0911110
:10054000C9CF7FBFE1ECF0E0808180628083822FA1
:1005500008958091320190913301FC01E058FF4FE2
:10056000208131813296808191818217930711F425
:1005700081E001C080E0882361F38091C00008958C
:100580001F920F920FB60F9211248F9381E08093E8
:1005900036011092060110922A0110922B0110923E
:1005A0002C0110922D0110922E0110922F01109209
:1005B0003001109231011092220110922301109209
:1005C0002401109225011092260110922701109209
:1005D0002801109229018F910F900FBE0F901F904C
:1005E00018951F920F920FB60F9211242F933F93DD
:1005F0004F935F936F937F938F939F93AF93EF93FB
:1006000020912A0130912B0140912C0150912D0114
:1006100060912E0170912F018091300190913101F4
:10062000A1E00E94690420932A0130932B0140939A
:100630002C0150932D0160932E0170932F01809314
:1006400030019093310120912A0130912B0140918A
:100650002C0150912D0160912E0170912F018091FC
:10066000300190913101283C31054105510561056A
:1006700071058105910591F52091220130912301A9
:10068000409124015091250160912601709127012C
:1006900080912801909129010E94690420932201F0
:1006A0003093230140932401509325016093260148
:1006B00070932701809328019093290110922A01B9
:1006C00010922B0110922C0110922D0110922E01EC
:1006D00010922F011092300110923101EF91AF91E1
:1006E0009F918F917F916F915F914F913F912F914A
:1006F0000F900FBE0F901F901895CF93DF9380E857
:1007000095E20E94F80187B1816087B987B1846062
:1007100087B987B1826087B988B1846088B988B1A8
:10072000826088B984B18F7E84B97894E9E6F0E07C
:100730008081816080838081826080838DB38160CD
:100740008DBB8081846080838081886080838DB34D
:1007500082608DBBD0E01C9963C066C0C11148C0E7
:100760008091220190912301209124013091250153
:100770004091260150912701609128017091290133
:100780007F936F935F934F933F932F939F938F9399
:1007900087E091E09F938F930E94AC0080912A01A3
:1007A00090912B0120912C0130912D0140912E012F
:1007B00050912F0160913001709131017F936F93BF
:1007C0005F934F933F932F939F938F938BE091E091
:1007D0009F938F930E94F600DF5F81E08093060174
:1007E0008DB79EB744960FB6F8949EBF0FBE8DBFCF
:1007F00080910601811103C098B19D7F98B988232B
:1008000019F088B1826088B98FE39FE10197F1F711
:1008100000C0000098B181E0892788B9CF5F01C08E
:10082000C0E0C43608F49ACF80910601811103C05C
:1008300098B19D7F98B9882319F088B1826088B9F2
:100840008FE39FE10197F1F700C0000098B181E0CC
:10085000892788B980913601811110923601D436EA
:1008600009F079CF8EE091E09F938F930E94F6007C
:1008700080E191E09F938F930E94F6000F900F907C
:100880000F900F9080E090E0DF91CF910895A1E26A
:100890001A2EAA1BBB1BFD010DC0AA1FBB1FEE1FFA
:1008A000FF1FA217B307E407F50720F0A21BB30B45
:1008B000E40BF50B661F771F881F991F1A9469F7C1
:1008C00060957095809590959B01AC01BD01CF011D
:1008D00008950024A7FD00942A0F301D401D501DCF
:1008E000601D701D801D901D08950F931F93CF9361
:1008F000DF938230910510F482E090E0E0913901BD
:10090000F0913A0120E030E0A0E0B0E0309719F13A
:10091000408151810281138148175907C8F084171B
:10092000950769F4109731F012960C93129713966D
:100930001C9327C00093390110933A0122C021155E
:10094000310519F04217530718F49A01BD01EF0160
:10095000DF01F801DBCF21153105F9F0281B390B38
:100960002430310580F48A819B816115710521F065
:10097000FB019383828304C090933A0180933901F1
:10098000FE01329644C0FE01E20FF31F8193919362
:1009900022503109398328833AC0209137013091A0
:1009A0003801232B41F4209102013091030130934F
:1009B0003801209337012091000130910101211568
:1009C000310541F42DB73EB7409104015091050126
:1009D000241B350BE0913701F0913801E217F30742
:1009E000A0F42E1B3F0B2817390778F0AC014E5F9F
:1009F0005F4F2417350748F04E0F5F1F50933801A3
:100A0000409337018193919302C0E0E0F0E0CF0181
:100A1000DF91CF911F910F910895CF93DF930097AE
:100A200009F481C0FC01329713821282A09139012E
:100A3000B0913A01109781F420813181820F931F88
:100A400020913701309138012817390751F5F0937B
:100A50003801E093370167C0ED0120E030E0CE17A8
:100A6000DF0740F44A815B819E0141155105F1F099
:100A7000EA01F5CFD383C28340815181840F951F52
:100A8000C817D90759F488819981840F951F029658
:100A9000918380838A819B81938382832115310591
:100AA00029F4F0933A01E09339013DC0E901FB8359
:100AB000EA8349915991C40FD51FEC17FD0761F4E2
:100AC00080819181840F951F0296E9019983888323
:100AD000828193819B838A83E0E0F0E012968D917E
:100AE0009C911397009719F0FD01DC01F7CF8D91D0
:100AF0009C9111979D012E5F3F4F820F931F209174
:100B00003701309138012817390769F4309729F4F3
:100B100010923A011092390102C013821282B093EE
:100B20003801A0933701DF91CF910895AEE0B0E096
:100B3000ECE9F5E00C9461088C01FA0186E08C8305
:100B40001A83098377FF02C060E070E8CB01019748
:100B50009E838D83A901BF01CE0101960E94C2052B
:100B60004D815E8157FD0AC02F813885421753079A
:100B70000CF49A01F801E20FF31F10822E96E4E0C4
:100B80000C947D08ABE0B0E0E8ECF5E00C94530881
:100B90006C017B018A01FC0117821682838181FF2F
:100BA000CCC1CE0101963C01F6019381F70193FD82
:100BB000859193FF81917F01882309F4BAC1853221
:100BC00039F493FD859193FF81917F01853229F45A
:100BD000B60190E00E94B907E7CF912C212C312C6F
:100BE000FFE1F315D8F08B3279F038F4803279F0E8
:100BF0008332A1F4232D20611DC08D3261F080333A
:100C000069F4232D216016C0832D8260382EE32DD8
:100C1000E4603E2E2AC0F32DF8601DC037FC2DC0C5
:100C200020ED280F2A3040F08E32B9F436FC81C115
:100C3000232D2064322E19C036FE06C08AE0989E0D
:100C4000200D1124922E11C0EAE02E9E200D1124B9
:100C5000222EF32DF0623F2E08C08C3621F4832D16
:100C60008068382E02C0883641F4F70193FD8591E3
:100C700093FF81917F018111B3CF982F9F7D955470
:100C8000933028F40C5F1F4F9FE399830DC0833688
:100C900031F0833771F0833509F059C021C0F80174
:100CA000808189830E5F1F4F88248394912C530188
:100CB00013C02801F2E04F0E511CF801A080B18052
:100CC00036FE03C0692D70E002C06FEF7FEFC501F3
:100CD0000E94AE074C018201F32DFF773F2E16C014
:100CE000280122E0420E511CF801A080B18036FE9E
:100CF00003C0692D70E002C06FEF7FEFC5010E9455
:100D0000A3074C01F32DF0683F2E820133FC1BC07A
:100D1000822D90E088169906B0F4B60180E290E04A
:100D20000E94B9072A94F4CFF50137FC859137FE6C
:100D300081915F01B60190E00E94B90721102A94C9
:100D400021E0821A91088114910471F7E8C0843679
:100D500011F0893641F5F80137FE07C060817181D5
:100D6000828193810C5F1F4F08C060817181072EC3
:100D7000000C880B990B0E5F1F4FF32DFF763F2E53
:100D800097FF09C090958095709561957F4F8F4F23
:100D90009F4FF0683F2E2AE030E0A3010E94F50744
:100DA000882E861845C0853731F4232D2F7EB22E2C
:100DB0002AE030E025C0932D997FB92E8F36C1F0FF
:100DC00018F4883579F0B5C0803719F0883721F0EC
:100DD000B0C0E92FE061BE2EB4FE0DC0FB2DF46063
:100DE000BF2E09C034FE0AC0292F2660B22E06C0CD
:100DF00028E030E005C020E130E002C020E132E030
:100E0000F801B7FE07C060817181828193810C5F18
:100E10001F4F06C06081718180E090E00E5F1F4F20
:100E2000A3010E94F507882E8618FB2DFF773F2E21
:100E300036FE0DC0232D2E7FA22E891458F434FEC9
:100E40000BC032FC09C0832D8E7EA82E05C0B82CA5
:100E5000A32C03C0B82C01C0B92CA4FE0FC0FE0106
:100E6000E80DF11D8081803321F49A2D997EA92E01
:100E700009C0A2FE06C0B394B39404C08A2D86783C
:100E800009F0B394A3FC11C0A0FE06C0B21488F40C
:100E9000280C922C9B180EC0B21460F4B60180E2AC
:100EA00090E00E94B907B394F7CFB21418F42B184E
:100EB00002C0982C212CA4FE10C0B60180E390E063
:100EC0000E94B907A2FE17C0A1FC03C088E790E00A
:100ED00002C088E590E0B6010CC08A2D867859F0F2
:100EE000A1FE02C08BE201C080E2A7FC8DE2B60148
:100EF00090E00E94B907891438F4B60180E390E0CD
:100F00000E94B9079A94F7CF8A94F301E80DF11D76
:100F10008081B60190E00E94B9078110F5CF2220B0
:100F200009F442CEB60180E290E00E94B9072A940B
:100F3000F6CFF6018681978102C08FEF9FEF2B9647
:100F4000E2E10C946F08FC010590615070400110C3
:100F5000D8F7809590958E0F9F1F0895FC016150E2
:100F6000704001900110D8F7809590958E0F9F1FCB
:100F700008950F931F93CF93DF93FB01238121FDEE
:100F800003C08FEF9FEF2CC022FF16C04681578110
:100F9000248135814217530744F4A081B1819D011A
:100FA0002F5F3F4F318320838C93268137812F5FC2
:100FB0003F4F3783268314C08B01EC01FB01008473
:100FC000F185E02D0995892BE1F6D80116968D91D2
:100FD0009C911797019617969C938E931697CE0126
:100FE000DF91CF911F910F910895FA01AA27283020
:100FF00051F1203181F1E8946F936E7F6E5F7F4FE6
:101000008F4F9F4FAF4FB1E03ED0B4E03CD0670F61
:10101000781F891F9A1FA11D680F791F8A1F911DB4
:10102000A11D6A0F711D811D911DA11D20D009F404
:1010300068943F912AE0269F11243019305D319346
:10104000DEF6CF010895462F4770405D4193B3E02F
:101050000FD0C9F7F6CF462F4F70405D4A3318F0D6
:10106000495D31FD4052419302D0A9F7EACFB4E087
:10107000A6959795879577956795BA95C9F700973F
:101080006105710508959B01AC010A2E06945795E0
:10109000479537952795BA95C9F7620F731F841F37
:1010A000951FA01D08952F923F924F925F926F92CD
:1010B0007F928F929F92AF92BF92CF92DF92EF92E8
:1010C000FF920F931F93CF93DF93CDB7DEB7CA1B69
:1010D000DB0B0FB6F894DEBF0FBECDBF09942A8894
:1010E000398848885F846E847D848C849B84AA843C
:1010F000B984C884DF80EE80FD800C811B81AA81C9
:10110000B981CE0FD11D0FB6F894DEBF0FBECDBF93
:08111000ED010895F894FFCFF2
:1011180000003B0120000125642C002564000A0022
:1011280050726F6772616D6D2066696E697368656C
:02113800640051
:00000001FF
